:020000040000FA
:020000000528D1
:1000080009003920831603138801FF308312031374
:1000180088007D30A0000830A100880D2008F2007B
:10002800F3012B20A10B11282008F200F3012B204B
:100038000730A100880C2008F200F3012B20A10B47
:100048001E28FF30880003100F2863002928F30AB0
:10005800E330F1000630F000F00B3028F10B2E28C9
:10006800F20B2C28F30B2C280800831603139F137C
:10007800831203131F10831603139F111F159F1458
:100088001F1007309C008312031385018601870126
:0600980088018901080047
:02400E007A3FF7
:00000001FF
