:020000040000FA
:020000000528D1
:100008000900EB23C623BB010130C200C30142082B
:10001800F7004308F8001521B800C20A0319C30AFB
:100028004208F7004308F8001521B700C20A03196F
:10003800C30AAE01B0012E08B9000330C200C301E3
:100048003708F5000830F90064247508C500300841
:10005800F5000830F90064247008BE00F500F901C5
:1000680048247008BA00C5080319BC28FF30B4003A
:100078004503BE00F9013E08F5004E247018BC285F
:10008800B40A34083007AF00FF30C6003803BE009A
:10009800F9013E08F5004E247018AF28C60A420838
:1000A800F7004308F8001521C400C20A0319C30A5F
:1000B8003B0844020319A6283A0A031D8528460866
:1000C8002E07AD002D1B6A28851605122D1F7028D6
:1000D80005164030AD0285122F08F5000830F900EA
:1000E80064247508A2000510B8302204B5008023E6
:1000F80040302D04B500802305144408B500802342
:10010800A628FF30A000A00A4418962846082E0703
:10011800AD0030082007AF002308A7002408A80076
:10012800FD23A12846082E07AD0030082007AF00A0
:100138002A08A7002B08A800FD23C40C07302002BA
:10014800031C87283803BE004608F5003E08F9005E
:100158004E24701852283908AE000830B0074503FD
:10016800BE003408F5003E08F9004E2470184428F3
:100178003708F5000830F90064247008B600B6089E
:1001880003191129FF30C6003803BE00F9013E08E3
:10019800F5004E2470181129C60A4208F7004308D2
:1001A800F8001521C400C20A0319C30AFF30A000D1
:1001B8003603BE00F9013E08F5004E2470180829E0
:1001C800A00A4418F32846082E07AD003008200777
:1001D800AF002308A7002408A800FD23FE2846082E
:1001E8002E07AD0030082007AF002A08A7002B080B
:1001F800A800FD23C40C3603BE002008F5003E0805
:10020800F9004E247018E4283803BE004608F500AB
:100218003E08F9004E247018D02805128512630094
:1002280013297708F5007808F600E330F900013063
:10023800FA005524701C003477082A3EF700013074
:100248000318013E78078A0077088200E2343C34BC
:1002580040340034003400340034003400340034B6
:1002680000340034003400340034003400340034E6
:1002780000340034003400340034003400340034D6
:1002880000340034003400340034003400340034C6
:1002980000340034003400348034E0340034C03496
:1002A80000340034003400340034003400340034A6
:1002B8000034003400340034003400340034003496
:1002C800003400340034003400344034C034B034D6
:1002D8006034C034803400340034003400340034D6
:1002E8000034003400340034003400340034003466
:1002F8000034003400340034003400340034003456
:1003080000340034003400340034C0347034DE3437
:1003180073341C340734013400340034003400349E
:100328000034003400340034003400340034003425
:100338000034003400340034003400340034003415
:1003480000340034003401340134033406340D34ED
:100358001B343E34EC341834103410341034183450
:100368001834083408340C340C340C340434043491
:1003780004340634063402340234023403340334B9
:100388000134013403340F341C347034E0348034C5
:1003980000340034003400340034003400340034B5
:1003A80000340034003400340034003400340034A5
:1003B8000034003400340034003400340034003495
:1003C800003400340034003400340034FF34003486
:1003D8000034003400340034003400340034003475
:1003E8000034003400340034003400340034003465
:1003F8000034003400340034003400340034003455
:10040800003400340034013407340E343834703486
:10041800C0348034003400340034003400340034F4
:100428000034003400340034003400340034003424
:100438000034003400340034003400340034003414
:1004480000340034FF340034003400340034003405
:1004580000340034003400340034003400340034F4
:1004680000340034003400340034003400340034E4
:1004780000340034003400340034003400340034D4
:100488000034003400348034C034633436341C34CF
:1004980000340034003400340034003400340034B4
:1004A80000340034003400340034003400340034A4
:1004B80000340034003400340034003407340C3481
:1004C8000834183410343034303420346034403434
:1004D800C034C034803480340034003400340034F4
:1004E8000034003400340034003400340034003464
:1004F8008034C034703438341C340E34033401343E
:100508000034003400340034003400340034003443
:100518000034003400340034003400340034003433
:100528000034003400340034003400340034003423
:10053800C0342034C0340034003400340034003473
:100548000034003400340034003400340034013402
:100558000134033403340234063404340C34EC34E8
:1005680008340C34063403340134003400342034A5
:1005780000340034003400340034003400340034D3
:1005880000340034003400340034003400340034C3
:1005980000340034003400340034003400340034B3
:1005A8000034C0343834163411341034113416344D
:1005B8003834C0340034FF34023401340134013497
:1005C800FE34003400347E34813481348134813403
:1005D8007E3400340034FF34423481348134813431
:1005E8007E3400340034FF34003400347F348034E7
:1005F800803480344034FF3400340034FF34023413
:10060800013401340134FE3402340134013401343C
:10061800FE347708F5007808F6000130F900FA0191
:100628005524701C00340134F30AE330F10006301D
:10063800F000F00B1D2BF10B1B2BF20B192BF30BFE
:10064800192B0800B201B30105168512B101B10AD0
:10065800FF30A200A20A0510B8302204B50080239A
:10066800FF30A100A10A051040302104B500802305
:100678000514B50180233F302102031C362B0730B7
:100688002202031C2E2B0512851602303102031C90
:100698002B2B0512851208008316031388170817D9
:1006A8008816081688150815881408148312031369
:1006B800051585140330F000F00B602BAC13881B74
:1006C800AC172C13081B2C17AC12881AAC162C125A
:1006D800081A2C16AC118819AC152C1108192C15F0
:1006E800AC108818AC142C1008182C148510033082
:1006F800F000F00B7D2B08003C1005183C14BC10D2
:10070800851ABC14051A851205105023AC1B892BB9
:1007180005103C1805148512BC188516051183169A
:10072800031308108810081188110812881208137A
:100738008813831203138813B51B88170813351BF6
:1007480008178812B51A88160812351A081688115B
:10075800B51988150811351908158810B5188814A1
:100768000810351808140330F000F00BB92B851465
:100778000330F000F00BBE2B85100330F000F00BB7
:10078800C32B0800831603130510051185100512E5
:10079800851285118312031385110130F200F301CC
:1007A800182385150130F200F30118230516851664
:1007B80005103F30B5008023C030B50080230512F6
:1007C8008512A301A4010130AA00AB01262B1F103A
:1007D800831603139F139F111F159F141F100730B3
:1007E8009C00831203138501860187018801890112
:1007F80008002D1B012C851605122D1F072C051628
:100808004030AD0285122F08F5000830F900642445
:100818007508A2000510B8302204B5008023051021
:1008280040302D04B5008023051450232C08A9005E
:10083800051450232C08A90007302F05A5002718F8
:10084800292CFE30A60003142C2C0130A60003101E
:100858002508BD000319332CA60DBD0B302C271815
:10086800392C29082605A9003C2C29082604A900AA
:10087800051040302D04B500802305142908B50063
:100888008023051285120800F00175087902031902
:10089800F0090800F001031479087502031CF00937
:1008A8000800F00176087A02031C08007A0876022C
:1008B800031C622C7908750203180800F009080067
:1008C800F0010830F4000310F50DF00D7908F0027E
:1008D80075140318722C75107908F007F40B672C3F
:0208E800080006
:02400E007A3FF7
:00000001FF
