:020000040000FA
:020000000528D1
:100008000900A1276A278A110A12BB018A150A1258
:100018000E208A110A12AE01B001CC30BC000230A9
:10002800BD003420FA30F200F3018A150A120020CC
:100038008A150A120E208A110A12AE01B001C830C0
:10004800BC000430BD003420FA30F200F3018A15F8
:100058000A1200208A110A120A283228630032285C
:100068000130C400C5013C08F5003D08F600CC305D
:10007800F9000230FA008A150A124C218A110A1274
:10008800701C56284408F7004508F800CC22B80030
:10009800C40A0319C50A4408F7004508F800CC2229
:1000A800B700DD283C08F5003D08F600C830F90027
:1000B8000430FA008A150A124C218A110A12701C9F
:1000C80075284408F7004508F800C824B800C40A91
:1000D8000319C50A4408F7004508F800C824B70002
:1000E800DD283C08F5003D08F6007E30F9000830B0
:1000F800FA008A150A124C218A110A12701C9828D3
:100108004408F7008A150A127E208A110A12B800DC
:10011800C40A0319C50A4408F7008A150A127E2082
:100128008A110A12B700DD283C08F5003D08F600E0
:100138008F30F9000830FA008A150A124C218A110A
:100148000A12701CBB284408F7008A150A128F206F
:100158008A110A12B800C40A0319C50A4408F7002C
:100168008A150A128F208A110A12B700DD283C0866
:10017800F5003D08F600A030F9000830FA008A15AD
:100188000A124C218A110A12701CDD284408F70053
:100198008A150A12A0208A110A12B800C40A031983
:1001A800C50A4408F7008A150A12A0208A110A1203
:1001B800B7002E08B9000330C400C5013708F500A0
:1001C8000830F900BA277508C7003008F50008306C
:1001D800F900BA277008C000F500F9018A150A125B
:1001E80046218A110A127008BA00C7080319FF29A4
:1001F800FF30B4004703C000F9014008F500B327F9
:100208007018FF29B40A34083007AF00FF30C8005F
:100218003803C000F9014008F500B3277018F22927
:10022800C80A3C08F5003D08F600CC30F900023059
:10023800FA008A150A124C218A110A12701C2B29FD
:100248004408F7004508F800CC22C60088293C0875
:10025800F5003D08F600C830F9000430FA008A15A8
:100268000A124C218A110A12701C41294408F7000D
:100278004508F800C824C60088293C08F5003D0850
:10028800F6007E30F9000830FA008A150A124C216F
:100298008A110A12701C59294408F7008A150A1293
:1002A8007E208A110A12C60088293C08F5003D08FC
:1002B800F6008F30F9000830FA008A150A124C212E
:1002C8008A110A12701C71294408F7008A150A124B
:1002D8008F208A110A12C60088293C08F5003D08BB
:1002E800F600A030F9000830FA008A150A124C21ED
:1002F8008A110A12701C88294408F7008A150A1204
:10030800A0208A110A12C600C40A0319C50A3B08AC
:1003180046020319E9293A0A031DC02948082E078D
:10032800AD002D1B9929851605122D1F9F2905162D
:100338004030AD0285122F08F5000830F900BA27C1
:100348007508A2000510B8302204B5008A150A12F3
:10035800B1208A110A1240302D04B5008A150A12FC
:10036800B1208A110A1205144608B5008A150A1226
:10037800B1208A110A12E929FF30A000A00A461804
:10038800D52948082E07AD0030082007AF002308FC
:10039800A7002408A8008A150A12F7208A110A1251
:1003A800E42948082E07AD0030082007AF002A08C6
:1003B800A7002B08A8008A150A12F7208A110A122A
:1003C800C60C07302002031CC2293803C0004808A5
:1003D800F5004008F900B327701814293908AE0051
:1003E8000830B0074703C0003408F5004008F9009A
:1003F800B327701806293708F5000830F900BA271E
:100408007008B600B6080319C92AFF30C8003803B7
:10041800C000F9014008F500B3277018C92AC80AB6
:100428003C08F5003D08F600CC30F9000230FA002F
:100438008A150A124C218A110A12701C2A2A4408A9
:10044800F7004508F800CC22C600872A3C08F500CA
:100458003D08F600C830F9000430FA008A150A127F
:100468004C218A110A12701C402A4408F7004508DA
:10047800F800C824C600872A3C08F5003D08F600A5
:100488007E30F9000830FA008A150A124C218A11C8
:100498000A12701C582A4408F7008A150A127E208E
:1004A8008A110A12C600872A3C08F5003D08F600A2
:1004B8008F30F9000830FA008A150A124C218A1187
:1004C8000A12701C702A4408F7008A150A128F2035
:1004D8008A110A12C600872A3C08F5003D08F60072
:1004E800A030F9000830FA008A150A124C218A1146
:1004F8000A12701C872A4408F7008A150A12A020DD
:100508008A110A12C600C40A0319C50AFF30A000DE
:100518003603C000F9014008F500B3277018C02A57
:10052800A00A4618A72A48082E07AD003008200759
:10053800AF002308A7002408A8008A150A12F7208C
:100548008A110A12B62A48082E07AD00300820077B
:10055800AF002A08A7002B08A8008A150A12F7205E
:100568008A110A12C60C3603C0002008F50040089C
:10057800F900B3277018942A3803C0004808F5001A
:100588004008F900B3277018132A051285120800CD
:100598007708F5007808F600E330F9000130FA0032
:1005A8008A150A1257218A110A12701C003477081A
:1005B800E53EF70002300318013E78078A00770805
:1005C8008200E2343C3440340034003400340034D7
:1005D8000034003400340034003400340034003473
:1005E8000034003400340034003400340034003463
:1005F8000034003400340034003400340034003453
:1006080000340034003400340034003400348034C2
:10061800E0340034C0340034003400340034003492
:100628000034003400340034003400340034003422
:100638000034003400340034003400340034003412
:100648004034C034B0346034C034803400340034B2
:1006580000340034003400340034003400340034F2
:1006680000340034003400340034003400340034E2
:1006780000340034003400340034003400340034D2
:10068800C0347034DE3473341C340734013400341D
:1006980000340034003400340034003400340034B2
:1006A80000340034003400340034003400340034A2
:1006B8000034003400340034003400340134013490
:1006C800033406340D341B343E34EC3418341034FF
:1006D8001034103418341834083408340C340C34FA
:1006E8000C3404340434043406340634023402343A
:1006F8000234033403340134013403340F341C341A
:100708007034E03480340034003400340034003471
:100718000034003400340034003400340034003431
:100728000034003400340034003400340034003421
:100738000034003400340034003400340034003411
:100748000034FF3400340034003400340034003402
:1007580000340034003400340034003400340034F1
:1007680000340034003400340034003400340034E1
:1007780000340034003400340034003401340734C9
:100788000E3438347034C0348034003400340034CB
:1007980000340034003400340034003400340034B1
:1007A80000340034003400340034003400340034A1
:1007B80000340034003400340034FF340034003492
:1007C8000034003400340034003400340034003481
:1007D8000034003400340034003400340034003471
:1007E8000034003400340034003400340034003461
:1007F8000034003400340034003400348034C03411
:10080800633436341C34003400340034003400348B
:100818000034003400340034003400340034003430
:100828000034003400340034003400340034003420
:10083800003407340C34083418341034303430346D
:10084800203460344034C034C034803480340034C0
:1008580000340034003400340034003400340034F0
:100868000034003400348034C034703438341C34DC
:100878000E340334013400340034003400340034BE
:1008880000340034003400340034003400340034C0
:1008980000340034003400340034003400340034B0
:1008A800003400340034C0342034C0340034003400
:1008B8000034003400340034003400340034003490
:1008C8000034003401340134033403340234063470
:1008D80004340C34EC3408340C3406340334013456
:1008E8000034003420340034003400340034003440
:1008F8000034003400340034003400340034003450
:10090800003400340034003400340034003400343F
:100918000034003400340034C03438341634113410
:100928001034113416343834C0340034FF340234EF
:10093800013401340134FE34003400347E3481340F
:100948008134813481347E3400340034FF344234BD
:100958008134813481347E3400340034FF340034EF
:1009680000347F348034803480344034FF340034A1
:100978000034FF340234013401340134FE340234CB
:10098800013401340134FE347708F5007808F600A4
:100998008930F9000230FA008A150A1257218A11A3
:1009A8000A12701C00347708E13EF700043003187F
:1009B800013E78078A0077088200A23454343F3415
:1009C800003400340034003400340034003400347F
:1009D800003400340034003400340034003400346F
:1009E800003400340034003400340034003400345F
:1009F800003400340034003400340034003400344F
:100A0800003400340034003400340034003400343E
:100A1800003400340034003400340034003400342E
:100A2800003400340034003400340034003400341E
:100A3800003400340034003400340034003400340E
:100A4800003420346034C03480348034C034E0341E
:100A5800E034E034F034B834DE34C0348034003468
:100A680000340034003400340034003400340034DE
:100A780000340034003400348034C034E034F034BE
:100A8800F834F834F834F834F834F834F834F03406
:100A9800F034F034F034F034E034E034E034E0346E
:100AA800E034E034E034E034E034E034E034E0349E
:100AB800E034E034E034E034E034E034F034F0346E
:100AC800F034F034F034F834F834F834F834FC34D2
:100AD800FC34FC34FC34FC34FC34FC34FC34FE348C
:100AE800FE34FE34FE34FE34FE34FE34FE34FF346D
:100AF800FF34FF34FF34FF34FF34FF34FF34FF3456
:100B0800FF34FF34F134C03480340034003400340E
:100B1800003400340034003400340034F834FE3437
:100B2800FF34FF34FF34FF34FF34FF34FF34FF3425
:100B3800FF34FF34FF34FF34FF34FF34FF34FF3415
:100B4800FF34FF34FF34FF34FF34FF34FF34FF3405
:100B5800FF34FF34FF34FF34FF34FF34FF34FF34F5
:100B6800FF34FF34FF34FF34FF34FF34FF34FF34E5
:100B7800FF34FF34FF34FF34FF34FF34FF34FF34D5
:100B8800FF34FF34FF34FF34FF34FF34FF34FF34C5
:100B9800FF34FF34FF34FF34FF34FF34FF34FF34B5
:100BA800FF34FF34FF34FF347F343F343F343F3465
:100BB8003F341E340C340034003400340034003424
:100BC8000034E034FF3407343F34FF34FF34FF345B
:100BD800FF34FF34FF34FF34FF34FF34FF34FF3475
:100BE800FF34FF34FF34FF34FF34FF34FF34FF3465
:100BF800FF34FF34FF34FF34FF34FF34FF34FF3455
:100C0800FF34FF34FF34FF34FF34FF34FF34FF3444
:100C1800FF34FF34FF34FF34FF34FF34FF34FF3434
:100C2800FF34FF34FF34FF34FF34FF34FF34FF3424
:100C3800FF34FF34FF34FF34FF34FF343F343F3494
:100C48003F341934003400340034003400340034A4
:100C580000340034003400340034003400340034EC
:100C68000034003400348034FC34FF34FF34003462
:100C7800003401340F34FF34FF34FF34FF34FF34C1
:100C8800FF34FF34FF34FF34FF34FF34FF34FF34C4
:100C9800FF347F34FF34FF34FF34FF34FF34FF3434
:100CA800FF34FF34FF34FF34FF34FF34FF34FF34A4
:100CB800FF34FF34FF347F347F347F34FF34FF3414
:100CC800FF34FF34FF34FF34FF34FF34FF34FF3484
:100CD800FF34FF347F343F341F340F340734033478
:100CE800013400340034003400340034003400345B
:100CF800003400340034003400340034003400344C
:100D08000034003400340034003400348034FF34BC
:100D1800FF34FF341F3400340034F034FC34FF3423
:100D2800FF34FF34FF34FF34FF34FF340F341F34F3
:100D38000F3407340F3401340034003400340034E5
:100D480001340134013401340134013401340134F3
:100D580001340134013401340034003400340034E7
:100D680000340034FF34FF343F340F34033400348C
:100D78002F34FF34FF34FF347F340134003400341F
:100D880000340034003400340034003400340034BB
:100D980000340034003400340034003400340034AB
:100DA800003400340034003400340034003400349B
:100DB8000034003400340334033401340034003484
:100DC80000340034FF34FF34FF340734013407346F
:100DD8001F34FF34FF34F034C0348034003400341E
:100DE800003400340034003400340034003400345B
:100DF800003400340034003400340034003400344B
:100E0800003400340034003414341F341F341F34C9
:100E180010340034003400340034FF34FF34FF341D
:100E2800C0348034003400340034003400340034DA
:100E3800003400340034003400340034003400340A
:100E480000340034003400340034003400340034FA
:100E580000340034003400340034003400340034EA
:100E6800003400340034003400340C343F347F3410
:100E78007F347834003400340034033403340734C6
:100E880003340334003400340034003400340034B4
:100E980000340034003400340034003400340034AA
:100EA800003400340034003400340034003400349A
:100EB800003400340034003400340034003400348A
:100EC800003400340134013401340134831603132F
:100ED800051005118510051285128511831203135B
:100EE80085110130F200F3018A150A1200208A11D7
:100EF8000A1285150130F200F3018A150A12002042
:100F08008A110A120516851605103F30B5008A1594
:100F18000A12B1208A110A12C030B5008A150A12C5
:100F2800B1208A110A1205128512A301A401013009
:100F3800AA00AB018A150A120E281F108316031384
:100F48009F139F111F159F141F1007309C008312B9
:100F58000313850186018701880189010800F001D2
:100F6800031479087502031CF0090800F001083021
:100F7800F4000310F50DF00D7908F002751403184C
:0E0F8800C82F75107908F007F40BBD2F080074
:10100000F30AE330F1000630F000F00B0528F10B95
:101010000328F20B0128F30B01280800B201B301E9
:1010200005168512B101B10AFF30A200A20A05100F
:10103000B8302204B500B120FF30A100A10A05108C
:1010400040302104B500B1200514B501B1203F3076
:101050002102031C1E2807302202031C1628051239
:10106000851602303102031C132805128512080070
:10107000831603138817081788160816881508158D
:101080008814081483120313051585140330F00027
:10109000F00B4828AC13881BAC172C13081B2C171B
:1010A000AC12881AAC162C12081A2C16AC1188191E
:1010B000AC152C1108192C15AC108818AC142C1078
:1010C00008182C1485100330F000F00B6528080078
:1010D0007708F5007808F6000130F900FA01572189
:1010E000701C003401347708F5007808F6000130F0
:1010F000F900FA015721701C0034023404307702E1
:101100000318003477088B3EF70008300318013EBF
:101110008A0077088200033401340034FF3404303D
:1011200077020318003477089C3EF7000830031854
:10113000013E8A0077088200033401340034FF3412
:1011400004307702031800347708AD3EF70008300A
:101150000318013E8A00770882000334013400340A
:10116000FF343E1005183E14BE10851ABE14051A31
:10117000851205103820AC1BBA2805103E1805143E
:101180008512BE18851605118316031308108810E2
:101190000811881108128812081388138312031388
:1011A0008813B51B88170813351B08178812B51A42
:1011B00088160812351A08168811B51988150811ED
:1011C000351908158810B518881408103518081432
:1011D0000330F000F00BEA2885140330F000F00B28
:1011E000EF2885100330F000F00BF42808002D1BC9
:1011F000FB28851605122D1F012905164030AD026A
:1012000085122F08F5000830F9008A110A12BA2752
:101210008A150A127508A2000510B8302204B5001C
:10122000B120051040302D04B500B1200514382040
:101230002C08A900051438202C08A90007302F0518
:10124000A50027182729FE30A60003142A290130FB
:10125000A60003102508BF0003193129A60DBF0BF6
:101260002E292718372929082605A9003A292908EF
:101270002604A900051040302D04B500B120051446
:101280002908B500B120051285120800F001750883
:1012900079020319F0090800F00175087902031DAD
:1012A000080076087A02031D0800F0090800F00122
:1012B00076087A02031C08007A087602031C642967
:0C12C0007908750203180800F009080006
:02400E007A3FF7
:00000001FF
