:020000040000FA
:020000000528D1
:080008000900EB21FF21572044
:1000100021000E168E150C302000A2004721210071
:100020000E138E17F430F2000130F300200013217C
:100030000130A300D3211330AE008230AF00B221D3
:100040000230A300D321FF30A000A00A9021200895
:10005000A4006E21A108031D48283C30AE00823068
:10006000AF00B2212008AC002121EA30AE002330DD
:10007000AF00B2210930A800E42101302004B30010
:100080005920A4016E21A4016E210130A300D321C7
:100090009E21FF302002031C25284330AE00823011
:1000A000AF00B2210230A300D32163005528A20182
:1000B000080031303302031D63285830AE0082300F
:1000C000AF00B221122941303302031D6D28753073
:1000D000AE008230AF00B221122949303302031D35
:1000E00077288C30AE008230AF00B22112294B301D
:1000F0003302031D81288C30AE008230AF00B22164
:1001000012294D303302031D8B288C30AE00823013
:10011000AF00B22112294F303302031D95288C30D5
:10012000AE008230AF00B221122961303302031DCC
:100130009F28A730AE008230AF00B2211229A13033
:100140003302031DA928B830AE008230AF00B221BF
:100150001229A3303302031DB328B830AE00823019
:10016000AF00B2211229A5303302031DBD28B830DB
:10017000AE008230AF00B2211229A7303302031D36
:10018000C728B830AE008230AF00B2211229A930A2
:100190003302031DD128B830AE008230AF00B22147
:1001A0001229AB303302031DDB28B830AE00823099
:1001B000AF00B2211229AD303302031DE528B8305B
:1001C000AE008230AF00B2211229AF303302031DDE
:1001D000EF28B830AE008230AF00B2211229C7300C
:1001E0003302031DF928CD30AE008230AF00B221BA
:1001F0001229D1303302031D0329E330AE008230CF
:10020000AF00B2211229F9303302031D0D29F53058
:10021000AE008230AF00B22112290130AE0083302F
:10022000AF00B2210800F30A0E30F100BD30F0003B
:10023000F00B1829F10B1629F20B1429F30B1429D2
:10024000080002302C00CA000F3020002C05AB0043
:10025000093C03182D290730AB0730302B072C0041
:10026000CC002000AB01AB0AAC0C04302B02031C09
:1002700033290F302C05AB00093C03184129073006
:10028000AB0730302B072C00CB00200008002400E7
:100290009417151695130C3020002202031D5729C0
:1002A000240095151511951015104F30920020005F
:1002B000A208031D60292400951115159514151029
:1002C000200029082202031D6A2924009511151512
:1002D0009514151424009516200008002400951389
:1002E00020002408240091002000AE212400161FC5
:1002F0007D29FF302000A1007F292000A1012400DA
:10030000951F8729200022080A3C03186E29200027
:1003100022080A3C031C8E29240015162000080020
:1003200022080A3C03189929240016142000AE2143
:100330009C292400941D99292000080022080A3CC9
:100340000318A92924001419A22916152000AE218A
:10035000AC292400141EA92920000800911DAE29F3
:10036000911108002E0884002F0885000008A700BE
:10037000A7080319D229AA0101302702031CD22998
:10038000AA0A2A082E07840000302F3D85000008A5
:10039000A800E4210530F200F301132127082A0206
:1003A000031CC02908002308B0000319E3290D30FD
:1003B000A800E4210530F200F30113210A30A8005F
:1003C000E421B00BD7290800111EE42928082300D6
:1003D0009A00200008002100191799161916991182
:1003E00099171D109E1323008C018D012200931379
:1003F000911320008C018D018E0190010800403086
:1004000023009B0003309C009F151E151E129D1794
:100410001D169E162000080078088A007708F70A43
:100420000319F80A82002834483461347234643481
:10043000773461347234653420344934323443348F
:10044000203444346534763469346334653420347C
:100450005334653461347234633468342034663420
:100460006F34723420344D346934633472346F34F1
:1004700063346834693470340634493444343A346B
:10048000203430347834143445346E3464342034B9
:100490006F346634203444346534763469346334DC
:1004A00065342034533465346134723463346834D1
:1004B0001C344434533432343434383432345F34BA
:1004C00031344334683461346E346E3465346C34A2
:1004D0005F343134573469347234653420344D34E8
:1004E000613473347434653472341634533465347F
:1004F0007234693461346C345F3445347834703428
:1005000061346E346434653472345F344434653439
:1005100076346934633465341A34493443343234BC
:100520002F34533465347234693461346C345F343D
:1005300045347834703461346E34643465347234E4
:100540005F3444346534763469346334653410344C
:10055000473443344234203453346C346134763479
:100560006534203444346534763469346334653416
:10057000143445344534503472346F346D345F3440
:100580004434653476346934633465345F344434D8
:100590006534763469346334653415344134583401
:1005A00045343034333433342034493432344334F2
:1005B00020344C3443344434203444346534763469
:1005C000693463346534113444345334313433344E
:1005D000303437345F345234543443345F34443429
:1005E000653476346934633465340B3446345234BC
:1005F00041344D345F344434653476346934633483
:1006000065340E3455346E346B346E346F34773455
:100610006E345F344434653476346934633465341D
:020000040001F9
:02000E00E43FCD
:02001000FF1FD0
:00000001FF
