:020000040000FA
:020000000528D1
:100008000900E427B2278031BE0188311C208031E5
:10001800B001B2019E30BF000230C0002E20EE3089
:10002800F2000230F3008831002088311C20803132
:10003800B001B2019830BF000430C0002E20EE306D
:10004800F2000230F30088310020803109282C2882
:1000580063002C280130C900CA013F08F500400898
:10006800F6009E30F9000230FA00893153218031C0
:10007800701C4E284908F7004A08F8009E22BB0069
:10008800C90A0319CA0A4908F7004A08F8009E2253
:10009800BA00C1283F08F5004008F6009830F9007A
:1000A8000430FA00893153218031701C6B284908CB
:1000B800F7004A08F8009824BB00C90A0319CA0ABD
:1000C8004908F7004A08F8009824BA00C1283F08F0
:1000D800F5004008F600B330F9000830FA0089311D
:1000E80053218031701C88284908F7008831B320D3
:1000F8008031BB00C90A0319CA0A4908F7008831C8
:10010800B3208031BA00C1283F08F5004008F60046
:10011800C430F9000830FA00893153218031701C4D
:10012800A5284908F7008831C4208031BB00C90AD6
:100138000319CA0A4908F7008831C4208031BA0077
:10014800C1283F08F5004008F600D530F90008300E
:10015800FA00893153218031701CC1284908F70001
:100168008831D5208031BB00C90A0319CA0A490859
:10017800F7008831D5208031BA003008BC00033040
:10018800C900CA013A08F5000830F900893174211C
:1001980080317508CC003208F5000830F900893143
:1001A800742180317008C500F500F90189314D21AD
:1001B80080317008BD00CC080319D929FF30B6007A
:1001C8004C03C500F9014508F50089315E218031ED
:1001D8007018D929B60A36083207B100FF30CD00A9
:1001E8003B03C500F9014508F50089315E218031DE
:1001F8007018CA29CD0A3F08F5004008F6009E305D
:10020800F9000230FA00893153218131701C132919
:100218004908F7004A08F8009E22CB0062293F08E7
:10022800F5004008F6009830F9000430FA008931EA
:1002380053218131701C27294908F7004A08F80022
:100248009824CB0062293F08F5004008F600B33037
:10025800F9000830FA00893153218131701C3B299B
:100268004908F7008831B3208131CB0062293F0863
:10027800F5004008F600C430F9000830FA0089316A
:1002880053218131701C4F294908F7008831C42057
:100298008131CB0062293F08F5004008F600D530CF
:1002A800F9000830FA00893153218131701C622924
:1002B8004908F7008831D5208131CB00C90A0319D4
:1002C800CA0A3E084B020319BF293D0A031D9A2991
:1002D8004D083007AF002F1B742922000C178C1310
:1002E80020002F1F7E2922008C1740302000AF02EB
:1002F80022000C1320003108F5000830F90089317C
:10030800742181317508A20022000C10B830200039
:100318002204B800382740302F04B80038272200BC
:100328000C1420004B08B8003827BF29FF30A00064
:10033800A00A4B18AD294D083007AF003208200736
:10034800B1002308A7002408A8008831E6208131DD
:10035800BA294D083007AF0032082007B1002C0831
:10036800A7002D08A8008831E6208131CB0C073082
:100378002002031C9C293B03C5004D08F5004508D5
:10038800F90089315E2181317018FE283C08B000DF
:100398000830B2074C03C5003608F5004508F900D7
:1003A80089315E2181317018EE283A08F50008304D
:1003B800F9008931742181317008B900B90803192D
:1003C800992AFF30CD003B03C500F9014508F50027
:1003D80089315E2181317018992ACD0A3F08F500CC
:1003E8004008F6009E30F9000230FA0089315321A6
:1003F8008131701C062A4908F7004A08F8009E2235
:10040800CB00552A3F08F5004008F6009830F9005F
:100418000430FA00893153218231701C1A2A4908A4
:10042800F7004A08F8009824CB00552A3F08F50041
:100438004008F600B330F9000830FA00893153213A
:100448008231701C2E2A4908F7008831B320823186
:10045800CB00552A3F08F5004008F600C430F900E3
:100468000830FA00893153218231701C422A490828
:10047800F7008831C4208231CB00552A3F08F500A7
:100488004008F600D530F9000830FA0089315321C8
:100498008231701C552A4908F7008831D5208231ED
:1004A800CB00C90A0319CA0AFF30A0003903C500E6
:1004B800F9014508F50089315E21823170188E2ACC
:1004C800A00A4B18752A4D083007AF0032082007DC
:1004D800B1002308A7002408A8008831E62082314B
:1004E800822A4D083007AF0032082007B1002C08D7
:1004F800A7002D08A8008831E6208231CB0C3903EB
:10050800C5002008F5004508F90089315E218231CF
:100518007018642A3B03C5004D08F5004508F9002A
:1005280089315E2182317018F12922008C130C1355
:10053800200008007708F5007808F600E330F90095
:100548000130FA00893165218231701C0034770846
:10055800B53EF70002300318013E78078A00770895
:100568008200E2343C344034003400340034003437
:1005780000340034003400340034003400340034D3
:1005880000340034003400340034003400340034C3
:1005980000340034003400340034003400340034B3
:1005A8000034003400340034003400340034803423
:1005B800E0340034C03400340034003400340034F3
:1005C8000034003400340034003400340034003483
:1005D8000034003400340034003400340034003473
:1005E8004034C034B0346034C03480340034003413
:1005F8000034003400340034003400340034003453
:100608000034003400340034003400340034003442
:100618000034003400340034003400340034003432
:10062800C0347034DE3473341C340734013400347D
:100638000034003400340034003400340034003412
:100648000034003400340034003400340034003402
:1006580000340034003400340034003401340134F0
:10066800033406340D341B343E34EC34183410345F
:100678001034103418341834083408340C340C345A
:100688000C3404340434043406340634023402349A
:100698000234033403340134013403340F341C347A
:1006A8007034E034803400340034003400340034D2
:1006B8000034003400340034003400340034003492
:1006C8000034003400340034003400340034003482
:1006D8000034003400340034003400340034003472
:1006E8000034FF3400340034003400340034003463
:1006F8000034003400340034003400340034003452
:100708000034003400340034003400340034003441
:100718000034003400340034003400340134073429
:100728000E3438347034C03480340034003400342B
:100738000034003400340034003400340034003411
:100748000034003400340034003400340034003401
:1007580000340034003400340034FF3400340034F2
:1007680000340034003400340034003400340034E1
:1007780000340034003400340034003400340034D1
:1007880000340034003400340034003400340034C1
:100798000034003400340034003400348034C03471
:1007A800633436341C3400340034003400340034EC
:1007B8000034003400340034003400340034003491
:1007C8000034003400340034003400340034003481
:1007D800003407340C3408341834103430343034CE
:1007E800203460344034C034C03480348034003421
:1007F8000034003400340034003400340034003451
:100808000034003400348034C034703438341C343C
:100818000E3403340134003400340034003400341E
:100828000034003400340034003400340034003420
:100838000034003400340034003400340034003410
:10084800003400340034C0342034C0340034003460
:1008580000340034003400340034003400340034F0
:1008680000340034013401340334033402340634D0
:1008780004340C34EC3408340C34063403340134B6
:1008880000340034203400340034003400340034A0
:1008980000340034003400340034003400340034B0
:1008A80000340034003400340034003400340034A0
:1008B8000034003400340034C03438341634113471
:1008C8001034113416343834C0340034FF34023450
:1008D800013401340134FE34003400347E34813470
:1008E8008134813481347E3400340034FF3442341E
:1008F8008134813481347E3400340034FF34003450
:1009080000347F348034803480344034FF34003401
:100918000034FF340234013401340134FE3402342B
:10092800013401340134FE347708F5007808F60004
:100938008930F9000230FA00893165218431701C50
:1009480000347708AF3EF70004300318013E7807FB
:100958008A0077088200A23454343F3400340034CB
:1009680000340034003400340034003400340034DF
:1009780000340034003400340034003400340034CF
:1009880000340034003400340034003400340034BF
:1009980000340034003400340034003400340034AF
:1009A800003400340034003400340034003400349F
:1009B800003400340034003400340034003400348F
:1009C800003400340034003400340034003400347F
:1009D800003400340034003400340034003420344F
:1009E8006034C03480348034C034E034E034E034DF
:1009F800F034B834DE34C034803400340034003489
:100A0800003400340034003400340034003400343E
:100A1800003400348034C034E034F034F834F8342E
:100A2800F834F834F834F834F834F034F034F03476
:100A3800F034F034E034E034E034E034E034E034EE
:100A4800E034E034E034E034E034E034E034E034FE
:100A5800E034E034E034E034F034F034F034F034AE
:100A6800F034F834F834F834F834FC34FC34FC341A
:100A7800FC34FC34FC34FC34FC34FE34FE34FE34E8
:100A8800FE34FE34FE34FE34FE34FF34FF34FF34CB
:100A9800FF34FF34FF34FF34FF34FF34FF34FF34B6
:100AA800F134C0348034003400340034003400346D
:100AB8000034003400340034F834FE34FF34FF349A
:100AC800FF34FF34FF34FF34FF34FF34FF34FF3486
:100AD800FF34FF34FF34FF34FF34FF34FF34FF3476
:100AE800FF34FF34FF34FF34FF34FF34FF34FF3466
:100AF800FF34FF34FF34FF34FF34FF34FF34FF3456
:100B0800FF34FF34FF34FF34FF34FF34FF34FF3445
:100B1800FF34FF34FF34FF34FF34FF34FF34FF3435
:100B2800FF34FF34FF34FF34FF34FF34FF34FF3425
:100B3800FF34FF34FF34FF34FF34FF34FF34FF3415
:100B4800FF34FF347F343F343F343F343F341E3466
:100B58000C34003400340034003400340034E03401
:100B6800FF3407343F34FF34FF34FF34FF34FF349D
:100B7800FF34FF34FF34FF34FF34FF34FF34FF34D5
:100B8800FF34FF34FF34FF34FF34FF34FF34FF34C5
:100B9800FF34FF34FF34FF34FF34FF34FF34FF34B5
:100BA800FF34FF34FF34FF34FF34FF34FF34FF34A5
:100BB800FF34FF34FF34FF34FF34FF34FF34FF3495
:100BC800FF34FF34FF34FF34FF34FF34FF34FF3485
:100BD800FF34FF34FF34FF343F343F343F3419349B
:100BE800003400340034003400340034003400345D
:100BF800003400340034003400340034003400344D
:100C080000348034FC34FF34FF34003400340134C1
:100C18000F34FF34FF34FF34FF34FF34FF34FF3424
:100C2800FF34FF34FF34FF34FF34FF34FF347F34A4
:100C3800FF34FF34FF34FF34FF34FF34FF34FF3414
:100C4800FF34FF34FF34FF34FF34FF34FF34FF3404
:100C5800FF347F347F347F34FF34FF34FF34FF3474
:100C6800FF34FF34FF34FF34FF34FF34FF34FF34E4
:100C78007F343F341F340F340734033401340034D5
:100C880000340034003400340034003400340034BC
:100C980000340034003400340034003400340034AC
:100CA80000340034003400348034FF34FF34FF341F
:100CB8001F3400340034F034FC34FF34FF34FF3484
:100CC800FF34FF34FF34FF340F341F340F3407343C
:100CD8000F3401340034003400340034013401345A
:100CE8000134013401340134013401340134013454
:100CF800013401340034003400340034003400344A
:100D0800FF34FF343F340F34033400342F34FF34BE
:100D1800FF34FF347F3401340034003400340034AD
:100D2800003400340034003400340034003400341B
:100D3800003400340034003400340034003400340B
:100D480000340034003400340034003400340034FB
:100D580000340334033401340034003400340034E4
:100D6800FF34FF34FF340734013407341F34FF34B1
:100D7800FF34F034C034803400340034003400349C
:100D880000340034003400340034003400340034BB
:100D980000340034003400340034003400340034AB
:100DA8000034003414341F341F341F34103400341A
:100DB800003400340034FF34FF34FF34C03480344E
:100DC800003400340034003400340034003400347B
:100DD800003400340034003400340034003400346B
:100DE800003400340034003400340034003400345B
:100DF800003400340034003400340034003400344B
:100E08000034003400340C343F347F347F34783479
:100E18000034003400340334033407340334033417
:100E2800003400340034003400340034003400341A
:100E3800003400340034003400340034003400340A
:100E480000340034003400340034003400340034FA
:100E580000340034003400340034003400340034EA
:100E6800013401340134013443100C184314C31005
:100E78000C1BC3148C1F422F22000C1322000C10D1
:100E88002000883158208731AE1B442F22000C10D7
:100E98002000431C512F22000C1422000C132000A8
:100EA800C31C582F22000C1722000C1121000F1010
:100EB8008F100F118F110F128F120F138F13220023
:100EC8008F132000B81F6A2F22008F1722000F13DC
:100ED8002000381F712F22000F1722008F122000C8
:100EE800B81E782F22008F1622000F122000381EFD
:100EF8007F2F22000F1622008F112000B81D862F89
:100F080022008F1522000F112000381D8D2F22007E
:100F18000F1522008F102000B81C942F22008F1468
:100F280022000F102000381C9B2F22000F140230C3
:100F3800F000F00B9D2F000022008C1420003708D1
:100F4800F500F60188310E20873122008C1002301E
:100F5800F000F00BAD2F00002000080021000C105D
:100F68000C118C108C130C138C1122008C11013075
:100F7800F200F301200088310020873122008C150F
:100F88000130F200F301200088310020873122006F
:100F98008C170C170C103F302000B8003827C030D1
:100FA800B800382722008C130C132000A301A401D9
:100FB8000130AC00AD010630AB00AA0188311C2815
:100FC8002100191799161916991199171D109E13B2
:100FD80023008C018D018F0190012200931391133E
:0E0FE80020008C018D018E018F019001080008
:10100000F30A0E30F100BD30F000F00B0528F10BB3
:101010000328F20B0128F30B01280800F60AF50853
:101020000319192800000000000000000000F50B63
:101030001228F60B12280800B401B50122008C1703
:101040000C132000B301B30AFF30A200A20A220051
:101050000C10B83020002204B800873138278831BE
:10106000FF30A100A10A22000C1040302000210412
:10107000B80087313827883122000C142000B801CD
:101080008731382788313F302102031C322807304E
:101090002202031C262822008C130C170230200089
:1010A0003302031C232822008C130C132000080099
:1010B00021008F170F178F160F168F150F158F140E
:1010C0000F1422000C158C140830F000F00B662869
:1010D0002000AE138F1BAE172E130F1B2E17AE1250
:1010E0008F1AAE162E120F1A2E16AE118F19AE15BC
:1010F0002E110F192E15AE108F18AE142E100F18BA
:101100002E1422008C100530F000F00B85282000F2
:1011100008007708F5007808F6000130F900FA01B8
:101120006521701C003477089D3EF70008300318D5
:10113000013E78078A007708820001347708F500BD
:101140007808F6000130F900FA016521701C0034BE
:101150007708B23EF70008300318013E78078A008E
:1011600077088200023404307702031800347708CD
:10117000C03EF70008300318013E8A00770882005D
:10118000033401340034FF34043077020318003490
:101190007708D13EF70008300318013E8A0077082F
:1011A0008200033401340034FF3404307702031822
:1011B00000347708E23EF70008300318013E8A0049
:1011C00077088200033401340034FF342F1BEB28EE
:1011D00022000C178C1320002F1FF52822008C17DB
:1011E00040302000AF0222000C1320003108F5002F
:1011F0000830F90074217508A20022000C10B830E4
:1012000020002204B80087313827893122000C10D1
:10121000403020002F04B800873138278931220060
:101220000C14200058202E08A90022000C142000C5
:1012300058202E08A90007303105A50027182429B9
:10124000FE30A600031427290130A600031025084C
:10125000C40003192E29A60DC40B2B2927183429E5
:1012600029082605A900372929082604A9002200F3
:101270000C10403020002F04B80087313827893106
:1012800022000C1420002908B80087313827893142
:1012900022008C130C1320000800F001750879025D
:1012A0000319F0090800F00175087902031D080010
:1012B00076087A02031D0800F0090800F001031403
:1012C00079087502031CF0090800F00176087A021B
:1012D000031C08007A087602031C7229790875023B
:1012E00003180800F0090800F0010830F4000310AA
:1012F000F50DF00D7908F0027514031882297510A8
:0A1300007908F007F40B77290800C4
:020000040001F9
:04000E00A43FFF1EEE
:00000001FF
