:020000040000FA
:020000000528D1
:1000080009001021002121000E110A302000A10052
:100018007830210203181E280430A1070130A500FA
:100028000230A7002108A6006E201430F200F30168
:1000380060200C280130A5000230A700FF30A60080
:100048006E206E30F200F30160200130A50002300E
:10005800A7007830A6006E206E30F200F301602011
:100068000130A5000230A700FF30A6006E206E30D8
:10007800F200F30160200130A5000230A7007830BB
:10008800A6006E206E30F200F301602021080A3CC1
:1000980003185C280430A1020130A5000230A70033
:1000A8002108A6006E201430F200F30160204A28CF
:1000B8000C285E2863005E28F30A0430F100A5309E
:1000C800F000F00B6528F10B6328F20B6128F30BA5
:1000D800612808000130A900D030F5000730F6008B
:1000E8002708F900FA013E217508A2007608A30046
:1000F800003C031887280430A9000310A30CA20CA5
:100108000310A30CA20C2308003C031893281030FA
:10011800A9000310A30CA20C0310A30CA20C220824
:100128009B001C109C100430290203191C14103069
:10013800290203199C141C152503031DBE2802302F
:100148001B07A8002608F500F6012808F900FA019F
:1001580072217008A2007108A300250091002000F8
:10016800A608031DB928250091012500931513152C
:1001780093101310023020002502031DDE280230E0
:100188001B07A8002608F500F6012808F900FA015F
:1001980072217008A2007108A300250091002000B8
:1001A800A608031DD9282500910125009A151A15BE
:1001B8009A101A10033020002502031DFE28023071
:1001C8001B07A8002608F500F6012808F900FA011F
:1001D80072217008A2007108A30025009100200078
:1001E800A608031DF928250091012600931513156B
:1001F800931013102000080034309B001C109C1032
:100208001A30250091002000A0162012A0152015F4
:10021800A01020101C15080021001917991619168E
:10022800991199131D109E1323008C018D01220032
:100238009313911320008C018D018E019001080009
:10024800F00175087902031D080076087A02031D7B
:100258000800F0090800F00176087A02031C08007B
:100268007A087602031C3C297908750203180800ED
:10027800F00908007508F7007608F8007908FB000F
:100288007A08FC00F201F3017B08F5007C08F6000F
:10029800F901FA012421701C5429F501F60108001E
:1002A8001030F4000310F70DF80DF20DF30D7B0874
:1002B800F2027C08F33B77140318672977107B0850
:1002C800F2077C08F33DF40B56297708F500780807
:1002D800F6007208F0007308F10008007508F700CE
:1002E8007608F8007908FB007A08FC00F201F301AF
:1002F8007B1C82297708F2077808F33D0310FC0C71
:10030800FB0C0310F70DF80D7B08F9007C08FA00C8
:10031800F501F6012F2170187C297208F000730886
:04032800F1000800D8
:020000040001F9
:04000E00A43FFF1EEE
:00000001FF
