:020000020000FC
:0200000033C00B
:0200040018954D
:02000800189549
:02000C00189545
:02001000189541
:0200140018953D
:02001800189539
:02001C00189535
:02002000189531
:0200240018952D
:02002800189529
:02002C00189525
:02003000189521
:0200340018951D
:02003800189519
:02003C00189515
:02004000189511
:0200440018950D
:02004800189509
:02004C00189505
:02005000189501
:020054001895FD
:020058001895F9
:02005C001895F5
:020060001895F1
:020064001895ED
:1000680054E05EBF5FEF5DBFB5D487D451E05093D5
:1000780064016BD250E05093900150E0509391018D
:10008800C9E2D1E0E2E0F0E1A0D759E25093A20141
:1000980051E05093A3014AD350E05093900158E0A7
:1000A80050939101C9E2D1E0E0E1F0E18ED759E245
:1000B8005093A20151E05093A30138D387D55091B2
:1000C800920150937001509193015093710150E047
:1000D8005093900158E150939101C9E2D1E0EEE1CB
:1000E800F0E173D759E25093A20151E05093A30174
:1000F8001DD350E35093900158E1509391015091D2
:10010800640150939F01F6D350E65093A20151E049
:100118005093A3010BD352E45093900158E15093AC
:1001280091015091700150939F015091710150932A
:10013800A001D0D5C9E2D1E099275991AAE5B1E04B
:100148009DD6E6E2F0E148D7A9E2B1E09C9359E2F6
:100158005093A20151E05093A301E8D2609173013A
:10016800C5E096D6662E00E2600E609270016624A5
:1001780008F463946092710152E45093900150E244
:10018800509391015091700150939F0150917101CA
:100198005093A0019FD5C9E2D1E099275991AAE5CA
:1001A800B1E06CD6E8E2F0E117D7A9E2B1E09C93A0
:1001B80059E25093A20151E05093A301B7D2F2E063
:1001C8005ED06090640163946092640177CF8895F3
:1001D800FECFDAEFE0E047D004D46BD4D1E0E0E022
:1001E80042D05CEC50936A013BD4D1E0E0E03BD0D4
:1001F80054E450936A0134D43B9A439895E19A9514
:10020800F1F700003B9895E29A95F1F700003399D1
:100218000AC0A1E090E09A95F1F7AA95D9F79FE373
:100228009A95F1F7E9CFDDD344D45CEC50936A0199
:1002380017D45EEB50936A0113D4DAD3509194012A
:10024800509370015091950150937101D1D3509101
:10025800940150937101089594E39A95F1F7000081
:10026800BA95D1F70895E395AEEF94E19A95F1F731
:10027800AA95D9F7DA95C1F7EA95B1F70895D8EEB6
:10028800E3E0F1DFFA95D9F70895C395BB2331F080
:1002980094E09A95F1F70000BA95D1F7CA95C1F79D
:1002A8000895A13710F000240895E0ECF2E0EA0F79
:1002B80008F4F395C89508957000100C0A88223840
:1002C8002008201010808040040000002848466C58
:1002D8000000002810001000407C008482304E7816
:1002E800066C0C00001028000464F8FE7CFEFEFE7C
:1002F8007CFE0040FEFEFEFE7CFE7CFE4C027E3E46
:100308007EC60EC200040008800040FE70707010A7
:1003180010FE0040FE00F8F870F810F890107838D9
:1003280078881888000000207800A13710F0002491
:100338000895E8E4F3E0EA0F08F4F395C895089502
:1003480070FE380A06CC667C700440103888A270AB
:100358001C00000EFE5426920A38821010A010C00D
:1003680020A284C282288A940292926CAC282882A5
:100378000292249282829212821082801080040853
:100388008212821292028040802810A2FE08820403
:100398008002A8908888A8FCA81090802082081065
:1003A80088282810A87C80408050A0C8100082109F
:1003B8004400A13710F000240895E0EDF3E0EA0FBF
:1003C80008F4F395C8950895707C7C0000EEEE7CE7
:1003D800A8FEFE545494947C7C009E0028FE10AA2B
:1003E8000644447C7C6010C01092FEA28A248A9243
:1003F800E292926C6C442844A2F222928282921277
:100408009210FE82288018108212A23292FE8080FA
:100418007010E092821082028004A8888888A8124E
:10042800A808FA8850FEF00888282808A890808034
:100438006020A0A86CFE6C104200A13710F00024C8
:100448000895E8E5F4E0EA0F08F4F395C8950895EF
:100458007038FE0C0ACC667C2004403810A28870E4
:100468001C00000EFE54C844008238101000100012
:10047800088A809296FE8A92129252000082282858
:1004880012822492824492129210827E4480042026
:1004980082124252920280408028108A8220FE04F2
:1004A8008008A8888890A802A808807A8880080808
:1004B80088283008A88040408050A09882001020EA
:1004C8004400A13710F000240895E0EEF4E0EA0FAC
:1004D80008F4F395C89508957010000A0688223824
:1004E8003E08201010808040040000002824C4A08A
:1004F8000000002810001000047C008C622072604C
:100508000E6C3C00000028100C7CF86C4438820209
:10051800F4FE00028280FEFE7C0CBC8C64027E3EEF
:100528007EC60E86004000088000F07040FE300451
:1005380078F000000000F0F07010F8104040F83833
:100548007888788800000010780050E05093870180
:10055800509388012B9A2C9850E0509386018090F4
:1005680086018394809286015FEF50936F0180909B
:100578006F01839480926F01289808EB80906F0137
:10058800802A80928A0158D15FEF50936E01809043
:100598006E01839480926E01289800E480906E0129
:1005A800802A80928A0148D1289A50E050938A0183
:1005B80043D160916E016F3350F360916F016730E2
:1005C800B0F22B982C9A60918601623040F22B98F9
:1005D8002C980895609065010FE0601A609265019B
:1005E80060918B0170918C01C0918001D091810143
:1005F80031D4009400FE0BC051E05093770150E0D5
:100608005093780150E0509380015093810150E05D
:1006180050936B0160906B01639460926B016091E1
:100628006B01613031F4A09165013BDE00926D01F0
:1006380027C060916B01623031F4A091650175DECD
:1006480000926D011DC060916B01633031F4A0917F
:100658006501AFDE00926D0113C060916B016430DB
:1006680031F4A0916501E9DE00926D0109C0609145
:100678006B01653029F4A091650123DF00926D01BB
:1006880050E050936C0160906C01639460926C012F
:1006980050906D0150FC18C06090660100916B018C
:1006A800600E609284016090670100916C01600E99
:1006B800609285015091770150937B0150917801A8
:1006C80050937C0104D217C06090660100916B01C1
:1006D800600E609284016090670100916C01600E69
:1006E800609285015091800150937B015091810166
:1006F80050937C01ECD160916D01679560936D0119
:1007080060916C01683008F4BECF60916B01653070
:1007180008F480CF50E0509377015093780151E06E
:100728005093800150E0509381010895A091A20157
:10073800B091A3015C9150938F0160918F01662362
:1007480009F40895509190015093820150E050931C
:100758009B0160918F01613088F160909B016394E7
:1007680060929B01509182015093660150919101D2
:10077800509367016090A20100919B01600EA62D25
:100788006090A30100E0601EB62D5C915093650156
:100798005091800150938B015091810150938C01AD
:1007A80019DF6090820100917F01600E60928201E2
:1007B80060919B01C0918F016C1778F2089557984A
:1007C8005698559854985398529851985098299AF1
:1007D8002A9A90E19A95F1F7509183015F774F99A2
:1007E8005068509383015F7B4E9950645093830106
:1007F8005F7D4D995062509383015F7E4C995061A3
:1008080050938301577F4B995860509383015B7FC6
:100818004A995460509383015D7F4999526050937F
:1008280083015E7F48995160509383012A989AE02A
:100838009A95F1F700C00895509199015E7F189933
:100848005160509399015D7F1C99526050939901B2
:100858001B992C982898B3DF5090830157FCFBCF45
:1008680028985090990150FC289A2C9850909901FA
:1008780051FC2C9A2998509A519A529A539A549A00
:10088800559A569A579A5F9850908A0157FC5F9AE2
:100898005E9850908A0156FC5E9A5D9850908A0145
:1008A80055FC5D9A5C9850908A0154FC5C9A5B9860
:1008B80050908A0153FC5B9A5A9850908A0152FCD6
:1008C8005A9A599850908A0151FC599A58985090C0
:1008D8008A0150FC589A95E09A95F1F700002A9AF7
:1008E800B0918901C0E0D1DC2A9895E09A95F1F79A
:1008F8000000089552E0509360010FE080909F013E
:10090800802280929E0169E0C0919E016C1730F4AC
:1009180080909E0107E0800E80929E0180909E014B
:1009280000E3800E8092620150E050939E01809017
:100938009E01839480929E0160919F0167956093C8
:100948009F0160919E01643090F30FE080909F01B9
:10095800802280929E0169E0C0919E016C1730F45C
:1009680080909E0107E0800E80929E0180909E01FB
:1009780000E3800E809261010895209A219A229ABC
:10098800239A249A259A2D98D1E0E0E06CDC2D9AE0
:10099800D1E0E0E068DC2B9A2C9A28985FE350932A
:1009A8008A014ADF50EC50938A0146DF2B982C9835
:1009B80050E0509377015093780151E050938001B3
:1009C80050E05093810156E050937F0150E05093DE
:1009D8007E01BBCD50E055B950E058B950E05BB945
:1009E80008953B983B9A4398BCE336DC3B980895BE
:1009F80050E0509369018090690183948092690165
:100A08006091940170919501779567956093940131
:100A1800709395013B9A439890E29A95F1F73B9829
:100A280095E19A95F1F70000339B05C05091940128
:100A3800506850939401339905C0509194015F77A1
:100A480050939401A1E090E09A95F1F7AA95D9F70F
:100A58009FE39A95F1F760916901683060F2089513
:100A680050E05093680180906801839480926801F7
:100A78003B9A439890E19A95F1F750906A0150FC9F
:100A88003B98A2E090E09A95F1F7AA95D9F793E1FF
:100A98009A95F1F700003B9890E19A95F1F76091EB
:100AA8006A01679560936A01609168016830D8F2BD
:100AB8000895A2E090E09A95F1F7AA95D9F793E105
:100AC8009A95F1F70000BBE2C7DB3B980895509078
:100AD800840156FC02C02C9A2B985090840156FE33
:100AE80008C02B9A8090840100E4801A80928401C7
:100AF8002C9860918501C8E0CBD160936F0128984C
:100B080008EB80906F01802A80928A0195DE2898F0
:100B180000E480908401802A80928A018DDE289AE0
:100B28004EDE5091830150937D01289A48DE509102
:100B3800830150937D0107E0809085018022809297
:100B4800790150907B0150FC05C05EEF50937A010B
:100B5800089404C051E050937A0188945091790127
:100B680050939C0160919C01662309F40BC060912D
:100B78007A01661F60937A0180909C018A94809222
:100B88009C01A9F750907B0150FC08C080907D0122
:100B980060907A01682060927D0107C080907D0195
:100BA80060907A01682860927D01289800E480901E
:100BB8008401802A80928A013FDE289A50917D0123
:100BC80050938A0139DE2B982C98089502DB5090B7
:100BD800710157FE19C00FEF809070018026682CB4
:100BE8000FEF8090710180268092070001E0600E6F
:100BF800609270018090070000E0801E8092710171
:100C08005FEF5093960103C050E0509396016091B6
:100C180070017091710156E0C52F50E0D52FAFD10A
:100C2800009292011092930160917001709171018C
:100C3800C9E1D0E09AD1602C712C662D772DC4E6DD
:100C4800D0E033D16093700170937101809092016C
:100C580060907001860C8092920180909301609060
:100C68007101861C809293016091920170919301A9
:100C780054E6C52F50E0D52F49D16093A901609162
:100C8800A5017091A601C4E6D0E00FD100927601CB
:100C980062E3C09176016C1728F48090A9018394CF
:100CA8008092A901609196016F3F61F48090A9013B
:100CB80000E8800E80929201882408F48394809240
:100CC800930107C05091A9015093920150E05093AD
:100CD8009301089550E050939A0160919F0170919B
:100CE800A001C0E1D7E2BDD0009400FE1FC0609112
:100CF8009F017091A001C0E1D7E2D7D060939D0118
:100D080000929F011092A00180909A018394809292
:100D18009A010AE5800EA82D00E011E0011FB02F0E
:100D280080909D0100E3800E8C920AC060919F0123
:100D38007091A001C8EED3E094D0009400FE1FC0CB
:100D480060919F017091A001C8EED3E0AED060938E
:100D58009D0100929F011092A00180909A018394B6
:100D680080929A010AE5800EA82D00E011E0011F8B
:100D7800B02F80909D0100E3800E8C920AC0609194
:100D88009F017091A001C4E6D0E06BD0009400FEF2
:100D98001FC060919F017091A001C4E6D0E085D08A
:100DA80060939D0100929F011092A00180909A018A
:100DB800839480929A010AE5800EA82D00E011E044
:100DC800011FB02F80909D0100E3800E8C920AC015
:100DD80060919F017091A001CAE0D0E042D00094D8
:100DE80000FE1EC060919F017091A001CAE0D0E092
:100DF8005CD060939D0100929F011092A0018090A9
:100E08009A01839480929A010AE5800EA82D00E049
:100E180011E0011FB02F80909D0100E3800E8C929D
:100E280080909A01839480929A010AE5800EA82DF9
:100E380000E011E0011FB02F80909F0100E3800EB9
:100E48008C9200929F011092A00150919A015093A8
:100E58005A01089500246C1719F47D1709F40094B9
:100E680008950024D71730F07D1718F06C1708F094
:100E78000895009408956D91699302C06D91960F3D
:100E8800603009F40895ED91E9936A95E1F70895C2
:100E9800002458E0552E660F001C0C1A616010F4EF
:100EA8006E7F0C0E5A94B9F70895862F972FEC2F62
:100EB800FD2F50E0252E50E0352E6E2F7F2FC0E0FD
:100EC800D0E0C8DF00FE05C050E0652F50E0752F68
:100ED800089550E1552E8894881F991F221C331CB1
:100EE800822C8E1A282C832C8F0A382C816038F497
:100EF8008E7F822C8E0E282C832C8F1E382C5A9491
:100F080051F7682F792F022C132C08958D2E8726E0
:100F1800482C77FF09C0662E772E609470946394EE
:100F280009F47394662D772DD7FF09C06C2E7D2E9A
:100F380060947094639409F47394C62DD72DB5DF2B
:100F480047FE12C0662E772E60947094639409F45D
:100F58007394662D772D602C712C60947094639433
:100F680009F47394062C172C08956C9F202C312CAF
:100F78006D9F300C7C9F300C022C132C08958D2E05
:100F88008726482C77FF09C0662E772E60947094C8
:100F9800639409F47394662D772DD7FF09C06C2EDE
:100FA8007D2E60947094639409F47394C62DD72DA4
:100FB800DCDF47FE09C0602C712C60947094639448
:100FC80009F47394062C172C0895C895602DE395A1
:100FD80009F4F395699306C0C895602DE39509F463
:100FE800F395960F603009F40895C895E39509F4D0
:100FF800F39509926A95C9F708950C4743426173BE
:1010080069632032303135000C4453313842323074
:101018002044656D6F000752656164696E670163FE
:0210280001665F
:00000001FF
